:100000000C9472080C94B9080C94B9080C94B908B3
:100010000C94B9080C94B9080C94B9080C94B9085C
:100020000C94B9080C94B9080C94362D0C94082E35
:100030000C946E1F0C94B9080C94B9080C94B90870
:100040000C94B9080C94B9080C94B9080C94B9082C
:100050000C94B9080C94E21F0C94B9080C94B908DC
:100060000C94B9080C94B9080C94B9080C94B9080C
:100070000C94B9080C94B9080C94B9080C94B908FC
:100080000C94B9080C94B9080C94B9080C94B908EC
:100090000C94B9080C94B9080C94B9080C94B908DC
:1000A0000C94B9080C94B9080C94B908BD0ABF0A9D
:1000B000CA0AC10AC30AC50AC70AC90ACC0ACE0AB3
:1000C000D00ADB0AD20AD40AD60AD80ADA0ADD0A2A
:1000D000D214D2140415041542156215C616C6169C
:1000E000A415C61645164516B616C616C616BF166C
:1000F00052165216521652165216521652165216C0
:1001000052165216521652165216521652165216AF
:100110006316711678167F168916551755176717C7
:1001200067175E1767176717671755175517631710
:100130006717671763178625742598253A24712653
:100140007126712571267126C5257126D92551265E
:1001500071267126712671260D2671267126F625C7
:100160007126B125712671266B266B266B266B26B0
:100170006B266B266B266B266B266D2671268625D5
:1001800069257126712671267126712671267126C0
:100190007126712671266D267126712671257126AC
:1001A00069266926692669266926692669266926D7
:1001B00069266D26752E9C2E8E2F9C2E8E2FE82E56
:1001C0000B2F8E2F612F702F340036003700130055
:1001D0001C00000009000A00060015000F000400C2
:1001E0001200080018000C00000007000B001700A8
:1001F00011001600330014000D000E001B00E0007B
:10020000050010001A0019001D0029002B00010034
:100210002C00E100E3000851E20001532A0028000D
:1002200014001A0008001500170000001C00180038
:100230000C001200130004001600070009000A0059
:1002400000000B000D000E000F0033001D001B000E
:10025000060019000500E00011001000360037000C
:10026000380029002B0000532C00E100E300085166
:10027000E20001002A002800010001000100010045
:100280000100000001000100010001000100010067
:100290000100010001000100000001000100010057
:1002A0000100010001000100010001000100010046
:1002B0000100010001000100010001000100010036
:1002C0000100010001000100010001000100010026
:1002D0000100010001000100010000000100010017
:1002E0000100010001000100010001000100010006
:1002F00000000100010001000100010001000100F7
:1003000001000100010001000100010001000100E5
:1003100001000100010001000100010001000100D5
:1003200001000100010001000100010001000100C5
:1003300001000000010001000100010001000100B6
:1003400001000100010001000000010001000100A6
:100350000100010001000100010001000100010095
:100360000100010001000100010001000100010085
:100370000100010001000100010001000100010075
:100380000100010001000100010000000100010066
:100390000100010001000100010001000100010055
:1003A0000000010001000100010001000100010046
:1003B0000100010001000100010001000100010035
:1003C0000100010001000100010001000100010025
:1003D0000100010001000100010001000100010015
:1003E0000100000001000100010001000100010006
:1003F00001000100010001000000010001000100F6
:1004000001000100010001000100010001000100E4
:1004100001000100010001000100010001000100D4
:1004200001000100010001000100010001000100C4
:1004300001000100010001000100000001000100B5
:1004400001000100010001000100010001000100A4
:100450000000010001000100010001000100010095
:100460000100010001000100010001000100010084
:100470000100010001000100010001000100010074
:1004800001000100010001001E001F0020002100EA
:10049000220000002300240025002600270035004C
:1004A00038002F003000310000004B005000520097
:1004B0004F002602E3002D00260227022E00E00056
:1004C0004E004A0051004D00270229002B00000079
:1004D0000951E100E3000100E20000002A002800C9
:1004E00038001E001F0020002D0000003A00F6001A
:1004F000F400F5007F0031002100220023002E00CF
:1005000000004B00F200F000F3008000E300240044
:10051000250026002800E0004E004A00F1004D00B2
:10052000810029002B0027000100E100E300010009
:10053000E200005C2A00280044454255473A206406
:10054000697361626C65642E0A0044454255473AFE
:1005500020656E61626C65642E0A000A00253031E8
:100560003662003A200025303258000A722F63208C
:1005700030313233343536373839414243444546D9
:100580000A00556E69636F646520696E707574202A
:100590006D6F64652073657420746F3A2025750A49
:1005A00000556E69636F646520696E707574206DA7
:1005B0006F646520696E697420746F3A2025750A2E
:1005C000000A002530325820006B6579626F617235
:1005D000645F7265706F72743A20000A00253032D1
:1005E00058006B6579626F6172645F7365745F6CEC
:1005F00065643A200064656C5F6B65795F6269745D
:100600003A2063616E27742064656C3A202530328D
:10061000580A006164645F6B65795F6269743A20AF
:1006200063616E2774206164643A20253032580A71
:1006300000290A002575002F002575005D2800257A
:10064000640020002564002000256400200025644B
:10065000007C0025303258006D6F7573656B6579CD
:10066000205B62746E7C782079207620685D287229
:1006700065702F61636C293A205B006D6B5F776852
:1006800065656C5F74696D655F746F5F6D6178201F
:100690003D2025640A006D6B5F776865656C5F6D52
:1006A00061785F7370656564203D2025640A006D84
:1006B0006B5F74696D655F746F5F6D6178203D205D
:1006C00025640A006D6B5F6D61785F7370656564AA
:1006D000203D2025640A006D6B5F696E746572763B
:1006E000616C203D2025640A006D6B5F64656C6160
:1006F00079203D2025640A006D6B5F776865656C25
:100700005F74696D655F746F5F6D6178203D202552
:10071000640A006D6B5F776865656C5F6D61785F1B
:100720007370656564203D2025640A006D6B5F74FD
:10073000696D655F746F5F6D6178203D2025640A87
:10074000006D6B5F6D61785F7370656564203D203F
:1007500025640A006D6B5F696E74657276616C204A
:100760003D2025640A006D6B5F64656C6179203DF6
:100770002025640A000A00257500363A207768654E
:10078000656C5F74696D655F746F5F6D61783A2049
:10079000000A00257500353A20776865656C5F6D45
:1007A00061785F73706565643A20000A0025750002
:1007B000343A2074696D655F746F5F6D61783A20BB
:1007C000000A00257500333A206D61785F7370650B
:1007D00065643A20000A00257500323A20696E747B
:1007E000657276616C286D73293A20000A002575C0
:1007F00000313A2064656C6179282A31306D7329A3
:100800003A20000A092D2056616C756573202D0A67
:10081000004D3E004D25643E20003F00736574206E
:1008200064656661756C740A00433E2000776865F4
:1008300072652064656C74613A20637572736F72BF
:100840003D25642C20776865656C3D25640A5365F9
:100850006520687474703A2F2F656E2E77696B6906
:1008600070656469612E6F72672F77696B692F4DB0
:100870006F7573655F6B6579730A000A092D204DEA
:100880006F7573656B6579202D0A4553432F713A57
:1008900009717569740A313A0964656C6179282AAD
:1008A00031306D73290A323A09696E746572766166
:1008B0006C286D73290A333A096D61785F7370652E
:1008C00065640A343A0974696D655F746F5F6D61C0
:1008D000780A353A09776865656C5F6D61785F7392
:1008E000706565640A363A09776865656C5F746996
:1008F0006D655F746F5F6D61780A0A703A09707296
:10090000696E742076616C7565730A643A09736563
:10091000742064656661756C74730A75703A092B8E
:10092000310A646F776E3A092D310A706775703A33
:10093000092B31300A7067646F776E3A092D3130B8
:100940000A0A7370656564203D2064656C746120DB
:100950002A206D61785F7370656564202A20287293
:100960006570656174202F2074696D655F746F5FB9
:100970006D6178290A003F004D3E2000433E200073
:100980004C25640A0074696D65725F726561643339
:100990003228293A202530346C580A006B65796D6D
:1009A00061705F636F6E6669672E6E6B726F3A205F
:1009B00025580A006B6579626F6172645F69646CC7
:1009C000653A2025580A006B6579626F6172645F31
:1009D00070726F746F636F6C3A2025580A00686FED
:1009E00073745F6B6579626F6172645F6C65647369
:1009F00028293A2025580A000A092D2053746174C9
:100A00007573202D0A004743433A20342E392E3285
:100A1000204156522D4C4942433A20312E382E3037
:100A200073766E204156525F415243483A206176B8
:100A300072350A004F5054494F4E533A204C554698
:100A400041204D4F5553454B45592045585452412F
:100A50004B455920434F4E534F4C4520434F4D4D2E
:100A6000414E44204E4B524F20343039360A00421A
:100A700055494C443A2022302E362E3432392D310D
:100A8000362D673338393562342D646972747922B2
:100A9000202831343A35313A3435204A756C2031CA
:100AA000372032303139290A005649443A2030780B
:100AB0003132303928546563686E6F6D616E6379C9
:100AC00029205049443A2030784131453528417435
:100AD0007265757329205645523A2030783030308F
:100AE000380A00444553433A20712E6D2E6B2E2058
:100AF0006B6579626F617264206669726D7761728D
:100B00006520666F72204174726575730A000A0968
:100B10002D2056657273696F6E202D0A000A092D0B
:100B200020436F6E736F6C65202D0A4553432F7100
:100B30003A09717569740A6D3A096D6F7573656B61
:100B400065790A000A092D204D61676963202D0A25
:100B5000443A094465627567204D65737361676542
:100B600020546F67676C650A583A094D6174726961
:100B700078204465627567204D6F646520546F6707
:100B8000676C65202D2053686F77206B65797072D4
:100B9000657373657320696E206D61747269782066
:100BA000677269640A4B3A094B6579626F617264D6
:100BB00020446562756720546F67676C65202D203F
:100BC00053686F77206B65797072657373207265F7
:100BD000706F72740A4D3A094465627567204D6FF3
:100BE00075736520546F67676C650A563A095665D8
:100BF0007273696F6E0A533A095374617475730A9C
:100C0000433A09416374697661746520436F6E737A
:100C10006F6C65204D6F64650A46312D4631303A60
:100C20000953776974636820746F204C6179657229
:100C300020302D392028463130203D204C30290AE3
:100C4000302D393A0953776974636820746F204CEA
:100C50006179657220302D390A47524156453A096B
:100C600053776974636820746F204C6179657220D2
:100C7000302028616C7465726E617465290A423A8D
:100C8000094A756D7020746F20426F6F746C6F61CC
:100C90006465720A4553433A094A756D7020746F52
:100CA00020426F6F746C6F616465722028616C7490
:100CB00065726E617465290A453A095072696E74ED
:100CC00020454550524F4D2053657474696E6773CB
:100CD0000A4253504143453A09436C6561722045CD
:100CE0004550524F4D0A4E3A094E4B524F20546FC9
:100CF00067676C650A000A002575002E6E6B726FBF
:100D00003A20000A002575002E737761705F6261DA
:100D1000636B736C6173685F6261636B7370616353
:100D2000653A20000A002575002E737761705F67B1
:100D3000726176655F6573633A20000A002575006D
:100D40002E6E6F5F6775693A20000A002575002EC8
:100D5000737761705F72616C745F726775693A2056
:100D6000000A002575002E737761705F6C616C74EA
:100D70005F6C6775693A20000A002575002E636173
:100D800070736C6F636B5F746F5F636F6E74726FA1
:100D90006C3A20000A002575002E737761705F633E
:100DA0006F6E74726F6C5F636170736C6F636B3ABC
:100DB00020000A0025303258006B65796D61705F44
:100DC000636F6E6669672E7261773A20000A0025AC
:100DD00075002E6D6F7573653A20000A0025750049
:100DE0002E6B6579626F6172643A20000A00257586
:100DF000002E6D61747269783A20000A0025750032
:100E00002E656E61626C653A20000A00253032580A
:100E10000064656275675F636F6E6669672E7261F5
:100E2000773A20000A0025750064656661756C7468
:100E30005F6C617965723A20003F004E4B524F3A29
:100E4000206F66660A004E4B524F3A206F6E0A00C2
:100E50000A6D6F7573653A206F66660A000A6D6FDA
:100E60007573653A206F6E0A000A6B6579626F616F
:100E700072643A206F66660A000A6B6579626F6178
:100E800072643A206F6E0A000A6D61747269783A72
:100E9000206F66660A000A6D61747269783A206F85
:100EA0006E0A000A64656275673A206F66660A001A
:100EB0000A64656275673A206F6E0A000A0A4A750D
:100EC0006D70696E6720746F20626F6F746C6F61F4
:100ED0006465722E2E2E2000433E2000436C656117
:100EE00072696E6720454550524F4D0A0065656333
:100EF0006F6E6669673A0A005B735D004B657962E5
:100F00006F6172642073746172742E0A005B575DA6
:100F1000005B535D005B525D005B445D005B435DC5
:100F2000000403300000000E0341007400720065ED
:100F3000007500730000001803540065006300682A
:100F4000006E006F006D0061006E006300790000AC
:100F5000000403090409025B00030100A0FA09046C
:100F600000000103010100092111010001224000DC
:100F70000705810308000A090401000103000000BD
:100F800009211101000122C0000705820320000A87
:100F900009040200020300000009211101000122DE
:100FA0002200070583032000010705030320000139
:100FB00012011001000000080912E5A10800010259
:100FC00003010631FF0974A1010975150026FF0010
:100FD0009520750881020976150026FF0095207579
:100FE000089102C005010902A10185020901A100C1
:100FF00005091901290515002501950575018102CD
:101000009501750381010501093009311581257F9D
:1010100095027508810609381581257F95017508A7
:101020008106050C0A38021581257F950175088116
:1010300006C0C005010980A1018503160100260331
:10104000001A81002A8300751095018100C0050CEB
:101050000901A1018504160100269C021A01002A3B
:101060009C02751095018100C005010906A101854A
:1010700005050719E029E715002501950875018187
:10108000020508190129059505750191029501755B
:101090000391010507190029EF1500250195F07549
:1010A000018102C005010906A101050719E029E730
:1010B00015002501950875018102950175088101CA
:1010C000050819012905950575019102950175031A
:1010D00091010507190029FF150026FF00950675E7
:1010E000088100C011241FBECFEFDAE0DEBFCDBF04
:1010F00004B603FE27C08091360290913702A0917A
:101100003802B09139028730904BA740B04BD1F4F0
:101110001092360210923702109238021092390261
:1011200014BE84B7877F84BF0FB6F894A8958091CA
:101130006000886180936000109260000FBEE0E064
:10114000F8E3099511E0A0E0B1E0EEE7F0E602C0B7
:1011500005900D92AC33B107D9F722E0ACE3B1E0D2
:1011600001C01D92A633B207E1F70E94512A0C94E8
:101170003D300C940000FF93EF93E0913C01F0911F
:101180003D01309709F00995EF91FF910895FC0119
:101190008591803011F0EFDFFBCF0895FF27E0E26B
:1011A00030E247FF0CC0419597FF09C0EDE2609522
:1011B000709580959095611D711D811D911D27FF72
:1011C00002C0219530E350E2AA27660F771F881FDF
:1011D000991FAA1FA41710F0A41B63955A95A9F78D
:1011E000AA3008F0A95FA05DAF93F3956115710572
:1011F0008105910541F7ED3211F4EF93F395F21764
:1012000018F43F93F395FBCF8F91B5DFFA95E1F793
:101210000895E991F9918591803021F0853219F096
:10122000AADFF9CF089520E0E89455915532C1F333
:10123000503311F4689455915A3348F4505390F355
:10124000220F022E220F220F200D250FF4CF0EF4B5
:10125000219589919991533619F3533729F15335D3
:1012600059F1BC0188279927E8945C3621F48991CB
:10127000999168945591543639F446EF7EF077FF92
:101280000DC08FEF9FEF0AC055374AE039F058354F
:1012900040E121F0523642E009F00895FF93EF93C8
:1012A0007DDFEF91FF91B7CFFF93EF93FC01819129
:1012B0008030B9F360DFFBCFFF93EF9368DFF1CFAE
:1012C000DF93CF93CDB7DEB72596A3DFCF91DF9124
:1012D00008950F931F93CF93DF939C013A952115A7
:1012E0003F4148F5EB018C0190FF03C080EEFB010C
:1012F000099511FF03C081EEFE01099512FF03C09D
:1013000082EEFE01099513FF03C083EEFE010995ED
:101310000115104180F084EEFE01099585EEFE0175
:10132000099586EEFE01099587EEFE01DF91CF91CA
:101330001F910F910994DF91CF911F910F91089503
:10134000877091E001C0990F8A95EAF7892F0E9472
:10135000101D0C94491D877091E001C0990F8A956A
:10136000EAF7892F0E94101D0C94491D877091E0A7
:1013700001C0990F8A95EAF7892F0E94161D0C94D7
:10138000491D877091E001C0990F8A95EAF7892F6E
:101390000E94161D0C94491DCF93DF93EC01805ED3
:1013A0009109089710F0209719F46BEA79E002C0D0
:1013B00060EA79E0CE010E9469098C2FDF91CF911C
:1013C0000C94DA12CF93DF93EC010E941314CE0138
:1013D000805E9109089710F0209719F461EC79E08C
:1013E00002C066EB79E0CE01DF91CF910C946909E0
:1013F000CF93DF93EC010E94CC09CE01DF91CF9116
:101400000C94E20981E0089581E008950C94040AA7
:101410001F93CF93DF9300D000D01F92CDB7DEB7DC
:1014200049835A832091640189819A81211112C0D4
:10143000662349F00E947A1C182F682F89819A81AF
:101440000E941F1C03C00E944E1C182F69817A81C4
:10145000812F04C00E947A1C69817A810F900F90BD
:101460000F900F900F90DF91CF911F910C94780BFC
:10147000FC01408151816281738184810C94080A4E
:101480000E94E21D811102C00E94681E0E94850F09
:101490000C94EA0D0C94ED0D282F2F7041F0822F43
:1014A00090E02A3010F44D9608950697089587E24B
:1014B00090E0089508950C945A0A0C945B0A0895DC
:1014C0000E9445170E945F0A2FEF84E39CE02150A1
:1014D00080409040E1F700C0000087E797E79093D5
:1014E0000108809300080C9408200F931F93CF935A
:1014F000DF938C010E94380AEC01B8010E94060AB1
:10150000882309F4EAC0B801CE010E942210882382
:1015100009F4E3C0B801CE010E94C110882309F488
:10152000DCC0C531FCE5DF0708F087C0C2308CE5C0
:10153000D80708F452C0F8018281882309F454C006
:101540000E94E21D811102C00E94681E0E94F51DCA
:1015500090E09093280280932702FE01E350FC451F
:10156000E231F10530F4EA5AFF4F809127020C94E2
:10157000E12F80912702816027C0826025C08460AE
:1015800023C0806121C080621FC080641DC080684C
:101590001BC08460886018C08E7F16C08D7F14C009
:1015A0008B7F12C08F7E10C08F7D0EC08F7B0CC0D2
:1015B0008F770AC08B7F877F07C087FB222720F9A0
:1015C00091E0922790FB87F9809327028091270270
:1015D0000E94F91D0E94451780C0C115ECE5DE0789
:1015E00051F0C130DC4579F0C801DF91CF911F91F6
:1015F0000F910C94020AF801C281CC2309F46EC049
:101600000E94600A6AC0F801C281CC2309F466C056
:101610008091E801C82FC095C170C0FB80F980930C
:10162000E801CC2329F08AE495E00E94C70855C060
:1016300088E395E00E94C70851C0CC3D8CE5D807EF
:1016400039F4F801C281CC2309F448C080E00DC010
:10165000CD3DECE5DE0760F0CD3D8CE5D80799F592
:10166000F801C281CC23D1F182E00E94F92A35C071
:10167000C631DC4509F0B8CF0E94FA1C282FF801CA
:1016800082814091000150910101882379F02A7AEA
:1016900091E009F490E090933E01911102C069E25B
:1016A00001C065E3CA010E94F11E0AC080913E019B
:1016B000811102C069E201C065E3CA010E94FC1EFB
:1016C0000E94491D0AC0CE3DDC4509F08DCFF801CE
:1016D000C281CC2319F00E94681EC0E08C2FDF91DC
:1016E000CF911F910F91089580E090E008950895A3
:1016F0009BE0799FF00111249CE2899FE00DF11D90
:101700001124E60FF11DEE0FFF1FE853FE4F8591E8
:1017100094910895880F991FFC01E55AFA4F85911D
:1017200094910895CF93DF930E94780B0E94490D06
:10173000EC01811520E59207F0F5811530E493075F
:1017400008F024C1883E910500F5803E910508F01F
:101750009CC1883A910570F4853A910508F09FC0C4
:101760008130910509F491C108F442C1049708F051
:101770008CC13EC18F3B910508F49CC0803C910513
:1017800008F436C1805C9109F4C0811540E29407E9
:1017900058F4C11581E0D80708F077C1C03FD105E2
:1017A00008F426C1D06571C1811520E3920708F0C5
:1017B000E4C09F70DEC0811535E5930708F044C092
:1017C000811544E5940708F0F8C0C11582E5D807F3
:1017D00008F5C11521E5D20708F0DBC08C2F837016
:1017E00021E030E002C0220F331F8A95E2F73C6807
:1017F000CE0174E0969587957A95E1F78370382B42
:10180000CF70C695C69580E2C89FE0011124C22B17
:10181000D32B3BC12C2F26952695CE01837099277B
:10182000C115D34508F0BAC040E2249F90011124AD
:10183000C1E0D0E002C0CC0FDD1F8A95E2F72C2B6F
:101840003D2BE901DC6821C1811549E59407A0F42D
:10185000C11588E5D80708F0B5C0C11526E5D2073F
:1018600008F0C6C08C2F0E94C60D8F71C82FD0E023
:10187000DC2FCC27D06209C181153AE5930708F423
:10188000A6C090568115904208F0B2C08D2F8F717E
:101890000E94C60DDD27D0628F71D82BF6C0853A25
:1018A000910509F4A8C0863A910509F0A7C0C2E8DD
:1018B000D0E4EBC0883A910509F4A3C0893A9105B8
:1018C00009F4A2C08A3A910509F4A1C08B3A9105A6
:1018D00009F4A0C08C3A910509F49FC08B3B910597
:1018E00009F49EC08C3B910509F49DC08D3A910589
:1018F00009F49CC0803B910509F49BC08E3A910588
:1019000009F49AC08F3A910509F499C0813B910579
:1019100009F498C0823B910509F497C0833B910577
:1019200009F496C0843B910509F495C0853B910567
:1019300009F494C0863B910509F493C0873B910557
:1019400009F492C0883B910509F491C0893B910547
:1019500009F490C08D3B910509F48FC08E3B910531
:1019600009F48EC08A3B910509F48DC0C0E0D4E42F
:101970008CC00E948A0BEC0188C09927D3FF03C05A
:10198000EC01D86C82C0EC01D06C7FC0DF70D06AF3
:101990007CC0DC2FCC27C16FD06A77C040E2249F87
:1019A00090011124C1E0D0E002C0CC0FDD1F8A9568
:1019B000E2F7C22BD32BDA6868C0D82FCC27C46FCC
:1019C000D06A63C0DC2FCC27C06FD06A5EC08F7036
:1019D0000E94C60D94E0D695C7959A95E1F7CF7011
:1019E000D0E0DC2FCC27D06A8F70806EC82B4DC022
:1019F000C0E0D0E04AC0C1E8D0E447C0C3E8D0E4CA
:101A000044C0C2EED4E441C0C9EED4E43EC0CAEE44
:101A1000D4E43BC0C5EBD4E438C0C6EBD4E435C055
:101A2000C3EBD4E432C0C4EBD4E42FC0C7EBD4E49E
:101A30002CC0CCECD4E429C0CDECD4E426C0C3E85F
:101A4000D5E423C0CAE8D5E420C0C2E9D5E41DC06E
:101A5000C4E9D5E41AC0C1E2D6E417C0C3E2D6E4B3
:101A600014C0C4E2D6E411C0C5E2D6E40EC0C6E29A
:101A7000D6E40BC0C7E2D6E408C0CFE6D4E405C084
:101A8000C0E7D4E402C0CAE2D6E4CE01DF91CF9130
:101A900008958238910549F1B0F48133910509F434
:101AA00058C048F48932910509F44EC08A32910534
:101AB00009F454C008958533910509F440C0893371
:101AC000910599F00895833E910529F138F4803EFF
:101AD000910591F0823E9105A1F00895863E910511
:101AE000F9F0873E910531F108952091270220FDFC
:101AF0003AC021FD38C008958091270280FD35C08D
:101B000032C08091270282FF32C08091270284FD7B
:101B100030C083EE39C08091270282FD28C0F5CF06
:101B20008091270283FF27C08091270284FD21C076
:101B300087EE2AC08091270283FD1DC0F5CF8091DA
:101B4000270285FD1AC01BC08091270285FD17C0A2
:101B500014C08091270286FD14C015C08091270211
:101B600086FD11C00EC080EE0FC089E30DC082EE6D
:101B70000BC080E009C086EE07C089E205C085E39E
:101B800003C08AE201C081E390E0089590912702AA
:101B900092FF0DC0282F2871283019F4877F8460A8
:101BA00006C0282F2471243011F48B7F886093FFA6
:101BB0000DC0282F2871283119F4877E846106C052
:101BC000282F2471243111F48B7E886194FD877E47
:101BD000089508950C94E90D08950C94EC0DE82FE8
:101BE000F0E0EE0FFF1FE15CFE4F808191810895D0
:101BF000CF92DF92EF92FF920F931F93CF93DF93D9
:101C00008BE695E00E94C7088FE3E82E81E0F82E6E
:101C1000C0E0D0E096E6C92E95E0D92E0DE515E09E
:101C2000DF93CF93DF92CF920E94600983E695E025
:101C30000E94C708F701819191917F010E94C81D00
:101C40009F938F931F930F930E9460098BE595E0FC
:101C50000E94C70821968DB79EB708960FB6F894D4
:101C60009EBF0FBE8DBFC430D105D1F6DF91CF919D
:101C70001F910F91FF90EF90DF90CF900895AEE10C
:101C8000B1E041E050E024E02A0F8D91E82FE29589
:101C9000EF70F0E031A18F70BA0102C0660F771FBC
:101CA0008A95E2F7CB01962F9095932391A392A169
:101CB000892B82A32A13E9CFA3E1B1E041E050E0F0
:101CC0002BE02A0F8D91E82FE295EF70F0E031A123
:101CD0008F70BA0102C0660F771F8A95E2F7CB01B9
:101CE000962F9095932391A392A1892B82A32A13D7
:101CF000E9CF1092480110924701109240011092D2
:101D00003F0110924A011092490110924201109233
:101D1000410110924C0110924B011092440110921B
:101D2000430110924E0110924D0110924601109203
:101D3000450184E00E94350F0C94400A5F926F9237
:101D40007F928F929F92AF92BF92CF92DF92EF924B
:101D5000FF920F931F93CF93DF930EE111E0A7E45F
:101D6000B1E0612CEE24E394F12C5D018D909C9008
:101D7000119711961C921E92E80189918E01E82F0D
:101D8000E295EF70F0E091A18F70A70101C0440FC0
:101D90008A95EAF7892F842B81A382A1542E50942F
:101DA000852182A3D0EADA95F1F783E1C82E81E09C
:101DB000D82E80E090E0E60179906E01272D2295E3
:101DC0002F7030E0E90168A12D913C91119770E0EE
:101DD000D72DDF7002C075956795DA95E2F760FD43
:101DE00008C0B701082E02C0660F771F0A94E2F7F9
:101DF00002C060E070E0262B372B11963C932E93A7
:101E000001968B309105B9F681A1D52DD823D1A3A8
:101E100082A1482B42A3129681E0F50120813181F5
:101E20008216930609F480E0682AF1E0AF34BF0718
:101E300009F09BCF262D44E06FE371E087E491E049
:101E40000E94360F0E944A0A862DDF91CF911F9182
:101E50000F91FF90EF90DF90CF90BF90AF909F9049
:101E60008F907F906F905F9008950895FF920F93E9
:101E70001F93CF93DF93F82E092F162FD72FC42F40
:101E8000222349F081E0809351010E94A01F90938A
:101E9000500180934F01809151018823D9F08091A6
:101EA0004F01909150010E94B81F069798F0EF2DB6
:101EB000F02FA12FBD2F80E090E04C2F50E0841731
:101EC000950734F4219131912D933D930196F7CFED
:101ED00010925101DF91CF911F910F91FF900895C2
:101EE000CF93DF9397FF0DC0FB012281222349F09E
:101EF000EC010E94C40FCE019F770E9405100E9442
:101F0000EE0F81E0DF91CF9108958CE090E00E9488
:101F1000FB2F90E0A0E0B0E080931C0290931D02A4
:101F2000A0931E02B0931F028091E80180FF0EC0B3
:101F300080911C021F928F9381EA95E09F938F936B
:101F40000E9460090F900F900F900F90089560917C
:101F50001C028CE090E00C94093080931C020E94DB
:101F6000A70F8091E80180FF0EC080911C021F9294
:101F70008F9382E895E09F938F930E9460090F9062
:101F80000F900F900F9008950E94FA1C80932002EA
:101F90000E940D1D80911C02813071F048F082304A
:101FA00081F08430A1F486EE0E947B1488E10DC09C
:101FB00082EE0E94DA120BC088E193E00E94F809D9
:101FC00006C082EE0E94DA1287E50E947B148FE33E
:101FD0009CE90197F1F700C00000089580911C0270
:101FE000813039F040F0823031F0843051F488E2B1
:101FF00006C08CE204C082EE0E94131402C00E944C
:102000007B14809120020C940A1D0F931F93CF9391
:10201000DF938C01CCE0D0E0C8010C2E02C0969575
:1020200087950A94E2F78F700E944C0A0E947B14F5
:102030002497CC3F8FEFD80779F7DF91CF911F918D
:102040000F9108950F931F93CF93DF93EC018B01B2
:10205000FB018281882301F1C33EFCE5DF07B9F073
:1020600050F4C13EECE5DE0781F0C23EFCE5DF073F
:1020700099F481E00FC0C43E8CE5D80751F0C53E0D
:10208000ECE5DE0749F484E005C080E003C082E0AF
:1020900001C083E00E94AD0FB801CE01DF91CF9166
:1020A0001F910F910C94700F0F931F93CF93DF9399
:1020B000C62FD42F022FFC0182818823C9F06093A0
:1020C00054010E94A01F909353018093520180E21B
:1020D0008C0F883008F050C0C77081E001C0880FB5
:1020E000CA95EAF7DF91CF911F910F910C948E144E
:1020F00010915401161330C08091520190915301F8
:102100000E94B81F883C910538F5C0E2CD0F1D171D
:10211000B9F080E2810F883040F4177081E001C08F
:10212000880F1A95EAF70E949514C83048F481E0A8
:102130009D2F977001C0880F9A95EAF70E948E1420
:10214000802F0E947B14C830B8F4D77081E001C0A2
:10215000880FDA95EAF70AC080E28C0F883060F4C5
:10216000C77081E001C0880FCA95EAF7DF91CF916F
:102170001F910F910C949514DF91CF911F910F91A6
:1021800008959C01CB01203F4CE53407F9F078F429
:10219000283DFCE53F07B9F0293D4CE5340711F136
:1021A000273D3C4531F526E241EE61EE1EC0223F5F
:1021B000FCE53F0799F070F0233F3C45D1F427E25E
:1021C00045EE66EE12C027E245EE0EC026E241EE75
:1021D00060EE0BC027E245EE64EE07C026E241EE5A
:1021E00062EE03C028E241E065EE0E94541080E0F8
:1021F0000895FC018281882319F0109254010895FA
:1022000081E0089590935A01809359010895E091D7
:102210005901F0915A01309721F00190F081E02DA1
:10222000099480E00895EF92FF921F93CF93DF937C
:10223000FC01A0915901B0915A01109709F442C0D4
:1022400080911201882341F08091270287FF04C00A
:102250008081818385E08083EF011296ED91FC916E
:102260001397CE0109958091E80182FF2BC080FF72
:1022700004C089EC95E00E94C70818E083ECE82EC2
:1022800085E0F82E8091E80180FF0BC088811F92C5
:102290008F93FF92EF920E9460090F900F900F9022
:1022A0000F90115021961111EDCF8091E80180FF20
:1022B00009C081EC95E0DF91CF911F91FF90EF90E5
:1022C0000C94C708DF91CF911F91FF90EF90089574
:1022D000E0915901F0915A01309739F022E0DC0188
:1022E0002C930480F581E02D0994089520915701E5
:1022F000309158018217930771F0909358018093A1
:102300005701E0915901F0915A01309721F0068070
:10231000F781E02D099408952091550130915601DF
:102320008217930771F09093560180935501E091C5
:102330005901F0915A01309721F00084F185E02D88
:102340000994089585B7806885BF85B7806885BF83
:102350000895089508950C94AA1108950C94AD1150
:102360000E94A2110E94A9110C94AB1181E0089562
:102370000E94971F0E943F0E0E9419200C94AE11DC
:10238000CF93C82F8091E80182FF1EC080FF04C058
:1023900082EE95E00E94C7088091E80180FF0CC0A2
:1023A0001F92CF938DED95E09F938F930E946009CC
:1023B0000F900F900F900F908091E80180FF04C064
:1023C0008BED95E00E94C7088C2FCF910C945D0A8D
:1023D0004F925F927F928F929F92AF92BF92CF92D5
:1023E000DF92EF92FF920F931F93CF93DF93CDB7BE
:1023F000DEB72A970FB6F894DEBF0FBECDBF0E949E
:102400009E0E0E94B611811111C08FEF89838A83BD
:102410001B820E94A01F8160782F9D838C8349813D
:102420005A816B818D810E94A61257C09CE5C92EEE
:1024300091E0D92E00E010E0AA24A394B12C702ED4
:10244000802F0E94EF0D4C01F601419051906F01D9
:10245000482659264114510431F40F5F1F4F0430B0
:10246000110569F7D2CF8091E80181FD0E94F80D36
:1024700020E030E07501022E02C0EE0CFF1C0A9431
:10248000E2F7C70184219521892B09F12E837F82F0
:102490008E209F2091E0892809F490E098870E947F
:1024A000A01F8160782F9A8789874E815F81688518
:1024B0008A850E94A612000F111FF801E45AFE4FF0
:1024C00080819181E826F926F182E08206C02F5FA3
:1024D0003F4F2B30310571F6C0CF0E942E22109154
:1024E0005B010E9407111817D9F00E940711809311
:1024F0005B012A960FB6F894DEBF0FBECDBFDF9109
:10250000CF911F910F91FF90EF90DF90CF90BF90F0
:10251000AF909F908F907F905F904F900C94C011E0
:102520002A960FB6F894DEBF0FBECDBFDF91CF91D4
:102530001F910F91FF90EF90DF90CF90BF90AF90E1
:102540009F908F907F905F904F900895CF93DF93EF
:10255000CDB7DEB72B970FB6F894DEBF0FBECDBF59
:102560004F83588769877A878B87DE01119686E0CB
:10257000FD0111928A95E9F785E0FE0137960190F9
:102580000D928A95E1F749815A816B817C818D8119
:102590009E810E94EF192B960FB6F894DEBF0FBEF6
:1025A000CDBFDF91CF910895FC01808191810E9480
:1025B000BB1C0895CF93DF931F92CDB7DEB788235E
:1025C00009F42DC1682F8238C1F40E94071181FDE2
:1025D00026C169E380910001909101010E94F11EE2
:1025E0000E94491D2FEF81EE94E0215080409040E1
:1025F000E1F700C0000069E319C0833811F50E94BB
:10260000071180FD0CC163E58091000190910101EB
:102610000E94F11E0E94491D2FEF81EE94E021508F
:1026200080409040E1F700C0000063E58091000128
:10263000909101010E94FC1E0F90DF91CF910C94AC
:10264000491D8438C1F40E94071182FDE8C067E487
:1026500080910001909101010E94F11E0E94491D8C
:102660002FEF81EE94E0215080409040E1F700C0D0
:10267000000067E4DBCF8CEF860F813A70F4862F81
:1026800069830E94882669818111C9C080910001F7
:10269000909101010E94F11ECFCF80E2860F883019
:1026A00048F4677081E001C0880F6A95EAF70E94DC
:1026B000FD1CC2CF8BE5860F833088F4653A29F084
:1026C000663A31F083E890E005C081E890E002C00E
:1026D00082E890E00F90DF91CF910C94761188E51D
:1026E000860F873108F091C0683A09F445C0693A0D
:1026F00009F445C06A3A09F445C06B3A09F445C08B
:102700006C3A09F445C06B3B09F445C06C3B09F4D5
:1027100045C06D3A09F445C0603B09F445C06E3AC6
:1027200009F445C06F3A09F445C0613B09F445C05E
:10273000623B09F445C0633B09F445C0643B09F4BE
:1027400045C0653B09F445C0663B09F445C0673B9D
:1027500009F445C0683B09F445C0693B09F445C02C
:102760006D3B09F445C06E3B09F445C06A3B09F472
:1027700045C080E090E044C082EE90E041C089EE28
:1027800090E03EC08AEE90E03BC085EB90E038C020
:1027900086EB90E035C083EB90E032C084EB90E0B4
:1027A0002FC087EB90E02CC08CEC90E029C08DEC22
:1027B00090E026C083E891E023C08AE891E020C041
:1027C00082E991E01DC084E991E01AC081E292E0C3
:1027D00017C083E292E014C084E292E011C085E267
:1027E00092E00EC086E292E00BC087E292E008C061
:1027F0008FE690E005C080E790E002C08AE292E0B8
:102800000F90DF91CF910C948C11603F40F0862F98
:102810000E94B4200F90DF91CF910C94A1210F90D2
:10282000DF91CF910895882309F464C0823879F448
:102830000E94071181FF5EC069E3809100019091C1
:1028400001010E94F11E0E94491D69E310C08338F6
:10285000B1F40E94071180FF4DC063E58091000133
:10286000909101010E94F11E0E94491D63E5809133
:102870000001909101010E94FC1E0C94491D8438B6
:1028800079F40E94071182FF35C067E4809100014E
:10289000909101010E94F11E0E94491D67E4E7CF5B
:1028A0009CEF980F913A10F4682FE1CF90E2980FC7
:1028B000983050F4877091E001C0990F8A95EAF73B
:1028C000892F0E94031DD9CF9BE5980F933020F4E8
:1028D00080E090E00C94761198E5980F973120F401
:1028E00080E090E00C948C11803F20F00E941C212D
:1028F0000C94A1210895CF93C82F0E94DA12C933F6
:1029000049F42FEF87EE93E0215080409040E1F7AB
:1029100000C000008C2FCF910C941314882321F059
:102920000E94FD1C0C94491D0895882321F00E94EB
:10293000031D0C94491D08954F925F926F927F92F0
:10294000BF92CF92DF92EF92FF920F931F93CF939C
:10295000DF937C01062FC72FFC01158112951F7094
:10296000D281D1110E941D1D0E94F31C882379F091
:10297000DD2369F080E2800F883048F082E00E9419
:10298000941D0E94F31C91E0B82EB92601C0B12C11
:10299000CC2EC2948FE0C822D12CF601E859FF4F0B
:1029A0000C94E12F8C2F807FCF70882311F0C2957B
:1029B000C07FDD2399F0CC2309F4C3C180E2800FEE
:1029C000883010F0011104C08C2F0E94FD1C03C040
:1029D0008C2F0E94101D0E94491DB3C1802F0E94A0
:1029E0001314CC2309F4D2C180E2800F883010F098
:1029F000011104C08C2F0E94031D03C08C2F0E9464
:102A0000161D0E94491DC2C18C2F807FCF7080325D
:102A100011F0C295C07F002319F00130C9F022C027
:102A2000DD2371F0112341F0113031F40E94301D8B
:102A30008C2B0E94361DAAC10E94301D8C2B3AC1DE
:102A4000112319F0113009F4A1C10E943F1D18C0D3
:102A5000DD2321F0163008F099C10EC0153008F0C2
:102A600095C10EC0DD2351F0112331F0F7018581AE
:102A700080FF67C18F7085838C2F1CC1111172C1BB
:102A80008C2F1EC18C2F86958695837090E00097C1
:102A900019F0019761F07AC1DD2321F0802F9C2F7E
:102AA000937002C080E090E00E9476117FC1DD2328
:102AB00021F0802F9C2F937002C080E090E00E9454
:102AC0008C1174C1DD23F9F0053F51F0063F71F020
:102AD000043FA9F4809121029091220281600BC0F1
:102AE0008091210290912202826005C08091210292
:102AF0009091220284609093220280932102802F81
:102B00000E94B4201EC0053F51F0063F71F0043F03
:102B1000A9F480912102909122028E7F0BC08091B6
:102B20002102909122028D7F05C080912102909117
:102B300022028B7F9093220280932102802F0E9499
:102B40001C210E94A12132C18C2F837009F04BC03F
:102B5000D11128C1202F229526952770220F220FF0
:102B6000602F6F70862F90E0A0E0B0E02C013D0157
:102B7000022E04C0440C551C661C771C0A94D2F724
:102B800004FF10C08FE090E0A0E0B0E004C0880F28
:102B9000991FAA1FBB1F2A95D2F780959095A095E3
:102BA000B09503C080E090E0DC01C695C695C37087
:102BB000D0E0BC01CD016429752986299729C2304E
:102BC000D10559F0C330D10559F0219719F00E9471
:102BD000341BE8C00E94221BE5C00E94461BE2C0D5
:102BE0000E94201BDFC0DD2319F08C2F817001C0F3
:102BF0008695882309F4D6C0202F22952695277024
:102C0000220F220F602F6F70862F90E0A0E0B0E0BF
:102C10002C013D01022E04C0440C551C661C771C7F
:102C20000A94D2F704FF10C08FE090E0A0E0B0E07B
:102C300004C0880F991FAA1FBB1F2A95D2F7809541
:102C40009095A095B09503C080E090E0DC01C6951A
:102C5000C695C370D0E0BC01CD01642975298629D1
:102C60009729C230D10559F0C330D10559F02197C9
:102C700019F00E94FA1B96C00E94E81B93C00E94A4
:102C80000C1C90C00E945B1B8DC0802F90E0FC014B
:102C9000E05EF109E531F10508F04FC0E858FF4F5B
:102CA0000C94E12F0F708C2F8F71DD2331F00E9477
:102CB000811B802F0E948E1469C00E94A21B802F4E
:102CC0000E94951463C0DD2341F0153008F05EC00A
:102CD0008C2F8F710E94C71B59C0163008F056C048
:102CE000F7CFDD2339F08C2F8F710E94811B4EC0EE
:102CF000DD23C9F38C2F8F710E94A21B47C0DD23F7
:102D000029F08C2F8F710E946C1B40C00E94671BA2
:102D10003DC0DD2349F0CF718C2F0E94811B63E001
:102D20008C2F0E947F1D32C081E00E94941D1230C2
:102D300068F182E00E94941D29C0DD2331F0112347
:102D400091F2802F0E94DA1221C0112399F20933E7
:102D500049F4FFEF27EE83E0F15020408040E1F797
:102D600000C00000802F0E94131410C04C2F4F7021
:102D7000602FC7010E94740B0E94931A17C04C2F3A
:102D80004F70602FC7010E94770B10C098E0C916E2
:102D9000D10441F05CF0FAE0CF1AD10822E0C2166B
:102DA000D10420F40E9407110E945D0ABB20F1F0BB
:102DB0000E94EF1C80FD1AC0F70112820E94E91CDC
:102DC0000E94811BC7010E9404170E94E91CDF9129
:102DD000CF911F910F91FF90EF90DF90CF90BF9018
:102DE0007F906F905F904F900C94A21BDF91CF91DA
:102DF0001F910F91FF90EF90DF90CF90BF907F9049
:102E00006F905F904F9008950F931F93CF93DF9330
:102E1000EC01888199812B813C81232BB9F09F3F64
:102E200011F48F3F99F0CE010E94750A882371F04A
:102E3000688179818A810E94C61C8C010E941E1CB7
:102E40000E941F1BB801CE010E949C14DF91CF91FC
:102E50001F910F9108950E941D1D0E942D1D0E941B
:102E6000491D0E94C9220E94A12180E090E00E9499
:102E7000761180E090E00C948C118091000190918B
:102E800001010E94071F0C942B170E940D1D0C942A
:102E90003D17E92FE295EF70F0E03297EE30F10543
:102EA000B0F4E357FF4F0C94E12F803F91F018F4FA
:102EB000803E68F40EC0843F51F40BC0803E48F061
:102EC000813F29F406C093FB882780F9089580E0AC
:102ED000089581E008950E94BB1C0E94491708953F
:102EE000CF93DF9300D000D01F92CDB7DEB70F9005
:102EF0000F900F900F900F90DF91CF910895CF9387
:102F0000DF9300D000D000D0CDB7DEB726960FB645
:102F1000F894DEBF0FBECDBFDF91CF9108951F9310
:102F2000CF93DF93C091650116E080916601C817C9
:102F300099F0D0E01C9FF0011D9FF00D1124E9597C
:102F4000FE4F4081518162817381848195810E940D
:102F50007F172196C770E9CFDF91CF911F91089518
:102F600040919701509198016091990170919A0157
:102F700080919B0190919C010C947F1780919C0102
:102F800082958F7009F054C080919901882309F4CB
:102F90004FC080916501A091660160919701709189
:102FA000980140919A0150919B01B6E08A1709F46B
:102FB0003FC090E041155105C1F17F3F11F46F3FD3
:102FC000A1F1B89FF001B99FF00D1124E959FE4F0E
:102FD000218172132AC02081621327C0228121110E
:102FE00024C0238134812417350710F4215031097E
:102FF000241B350B283C3105C0F420919C012F7017
:10300000206120939C0126E0289FF001299FF00D6C
:103010001124E459FE4F80818F708061808387E99D
:1030200091E00E9404170C948F1701968770BECF11
:103030000895CF92DF92EF92FF920F931F93CF9359
:10304000DF93CDB7DEB762970FB6F894DEBF0FBE41
:10305000CDBF8C0185E0F801DE011D9601900D9237
:103060008A95E1F7D8014C9111965C9111971296CF
:103070006C9112971396CD90DC9014973091970134
:103080007091980180919A0190919B01009709F4A9
:103090006BC17F3F19F43F3F09F466C1E09099018D
:1030A000EE2009F4C0C020919C01C816D90628F072
:1030B000F601E81BF90BCF0104C0809590958C0DAB
:1030C0009D1DFF24F394883C910578F0F12C207F1E
:1030D00009F0C6C07C2DD98AC88A89890E947017D8
:1030E00087E991E00E940417B1C0822F807F09F028
:1030F00046C0751314C0341312C0611110C02F7074
:10310000206120939C010E94B01787E991E00E9402
:10311000041780919C01D80115968C932EC0CD2860
:1031200019F15F3F11F44F3FF9F0F62E61111CC009
:10313000809165012091660136E0821709F45AC03A
:1031400090E0389FF001399FF00D1124E959FE4FAE
:103150007181571306C07081471303C072817111CA
:1031600003C001968770E9CFF62E662309F427C1C4
:1031700080919C01816080939C01F12C20C175138A
:1031800008C0341306C0611104C080919C01D801AD
:10319000C3C04D875E878D859E856A8B0E946B17A5
:1031A0006A898823E1F16623D1F120919C01822F65
:1031B00082958F7090E0029774F0809197019091C2
:1031C000980198878F831986DB86CA862C87CE0163
:1031D00007960E94041786E0F801A7E9B1E0019084
:1031E0000D928A95E1F70E94BE170E94B017FF2446
:1031F000F394E5C04D875E878D859E850E94BB1C3C
:10320000292F22952F7030E0223031050CF0CBC0F1
:103210009F7009F0C5C0805E883008F4D0C0C80136
:103220000E940417E4CFC816D90608F453C0F6016B
:10323000E81BF90BCF01883C910508F450C0F12C34
:103240007C2DD98AC88A89890E947017E7E9F1E044
:1032500086E0DF011D928A95E9F70E94B017AFC0A2
:10326000751314C0341312C0611110C080919C01F9
:10327000F8018583C8010E94041786E0E7E9F1E0C0
:10328000DF011D928A95E9F7FE2C99C04D875E8774
:103290008D859E856A8B0E946B176A89882309F445
:1032A000BECF662309F4BBCF20919C01822F82956B
:1032B0008F7090E002970CF48ECF809197019091DF
:1032C00098019A8389831B82DD82CC822E83CE0172
:1032D00001967FCF809590958C0D9D1DACCFF62EDD
:1032E000662309F49CCF75132EC034132CC0209193
:1032F0009C0120FD1FC0822F82958F70D9F0D801CC
:1033000015962C9315978F3049F08F5F982F9295D3
:10331000907F822F8F70892B15968C93C8010E9405
:10332000041786E0F801A7E9B1E001900D928A95B3
:10333000E1F793CF86E0F801A7E9B1E001900D92A3
:103340008A95E1F73CC04D875E878D859E850E94FA
:103350006B17811140CF80919C01816080939C010B
:10336000C8010E9404172BC0662309F458CF4D876B
:103370005E878D859E850E946B17F82E882309F441
:103380004ECF86E0F801A7E9B1E001900D928A9551
:10339000E1F787E991E00E94D4120E94BE175DCF49
:1033A000811139CF0CC0243031050CF038CF9F701B
:1033B00009F431CFF8019581907F09F02CCF8F2D42
:1033C00062960FB6F894DEBF0FBECDBFDF91CF91EE
:1033D0001F910F91FF90EF90DF90CF9008951F9372
:1033E000CF93DF93CDB7DEB72C970FB6F894DEBF3F
:1033F0000FBECDBF4F83588769877A878B879C879D
:10340000CE0107960E941918882369F08F8198854C
:103410002A853B85232BF1F19F3F09F063C08F3F45
:1034200009F060C037C086E0FE013796DE011196D4
:1034300001900D928A95E1F76F817885EA85FB8589
:10344000309741F17F3F11F46F3F21F120916601E8
:1034500030E0C9010196877099274091650150E0DD
:103460008417950709F447C069837A83FD83EC8349
:1034700096E0929FD001939FB00D1124A959BE4FA1
:10348000FE01319601900D929A95E1F780936601C5
:103490000E948F1716E0809165019091660189174F
:1034A000C1F1189FC001112489599E4F0E9419181B
:1034B000882379F1E09165011E9FF0011124E959FB
:1034C000FE4F4081518162817381848195810E9488
:1034D0007F178091650190E001968770992780930E
:1034E0006501D9CF4F81588569857A858B859C8503
:1034F0000E947F17CFCF0E9445171092660110924D
:103500006501E7E9F1E086E0DF011D928A95E9F7C0
:10351000C1CF2C960FB6F894DEBF0FBECDBFDF91A2
:10352000CF911F910895EF92FF920F931F93CF9326
:10353000DF938C01892B09F46CC0F12CEE24E39409
:10354000E8012196F8018491843740F4843008F032
:1035500051C0813081F0823019F15BC0853709F4A8
:1035600044C0A8F19CE7980F903708F052C08F77BD
:103570000E94131441C00E5F1F4FFE01C49180E2F0
:103580008C0F883048F4C7708E2D01C0880FCA9503
:10359000EAF70E94201D14C08C2F0E94DA122DC061
:1035A0000E5F1F4FFE01C49180E28C0F883058F4EB
:1035B000C7708E2D01C0880FCA95EAF70E94261D9C
:1035C0000E94491D1AC08C2F0E94131416C00E5F52
:1035D0001F4FFE01C491CC2381F08FE99FE001973A
:1035E000F1F700C00000C150F6CF0E5F1F4FFE0183
:1035F000F49003C00E94DA128E018F2D882309F403
:103600009FCFEFE9FFE03197F1F700C00000815054
:10361000F5CFDF91CF911F910F91FF90EF9008951B
:1036200008950C94101B0E94111B6093BF017093AE
:10363000C0018093C1019093C2010C942B1708958F
:103640000C94131B0F931F930091BF011091C001A5
:103650002091C1013091C201602B712B822B932BE1
:103660001F910F910C94131B0F931F930091BF0197
:103670001091C0012091C1013091C20160237123DA
:10368000822393231F910F910C94131B0F931F936D
:103690000091BF011091C0012091C1013091C20180
:1036A00060277127822793271F910F910C94131B7A
:1036B00008950C94581B0E94591B6093BB01709392
:1036C000BC018093BD019093BE010C942B1760E068
:1036D00070E0CB010C945B1B0F931F9341E050E013
:1036E00060E070E08A019B0104C0000F111F221FDF
:1036F000331F8A95D2F7C901B8011F910F910C941D
:103700005B1B0F931F9341E050E060E070E004C04A
:10371000440F551F661F771F8A95D2F78091BB0112
:103720009091BC01A091BD01B091BE018A019B01A5
:10373000082B192B2A2B3B2BC901B8011F910F9184
:103740000C945B1B0F931F9341E050E060E070E02E
:1037500004C0440F551F661F771F8A95D2F7409506
:103760005095609570958091BB019091BC01A0919E
:10377000BD01B091BE018A019B01082319232A23B0
:103780003B23C901B8011F910F910C945B1B0F9350
:103790001F9341E050E060E070E004C0440F551F0B
:1037A000661F771F8A95D2F78091BB019091BC016B
:1037B000A091BD01B091BE018A019B010827192784
:1037C0002A273B27C901B8011F910F910C945B1B5D
:1037D0000F931F930091BB011091BC012091BD017B
:1037E0003091BE01602B712B822B932B1F910F9177
:1037F0000C945B1B0F931F930091BB011091BC01B4
:103800002091BD013091BE01602371238223932357
:103810001F910F910C945B1B0F931F930091BB01A1
:103820001091BC012091BD013091BE01602771272C
:10383000822793271F910F910C945B1B08952BE017
:10384000929F800D1124A82FA695A695A695877006
:1038500051E001C0550F8A95EAF785E0A89FD00195
:10386000112420E030E070E0F901EA0FFB1FE3567D
:10387000FE4F4081CB01022E02C0969587950A9497
:10388000E2F7817099278195842785238427808397
:103890002F5F3F4F2530310539F708952BE0929F78
:1038A000800D1124682F669566956695982F977000
:1038B00085E0689FB001112440E050E080E0FA010B
:1038C000E60FF71FE356FE4F208130E0092E02C0BD
:1038D000369527950A94E2F721703327042E01C00C
:1038E000220F0A94EAF7822B4F5F5F4F4530510554
:1038F00031F70895BF92CF92DF92EF92FF920F932C
:103900001F93CF93DF938C01C090BF01D090C00173
:10391000E090C101F090C2018091BB019091BC0187
:10392000A091BD01B091BE01C82AD92AEA2AFB2A7A
:10393000CFE1D0E0D701C6010C2E04C0B695A79503
:10394000979587950A94D2F780FF07C0BC2EB801DF
:103950008C2F0E94920B019719F4219758F7B12CE4
:103960008B2DDF91CF911F910F91FF90EF90DF9002
:10397000CF90BF900895CF93DF93EC010E947A1C03
:10398000BE010E94920BDF91CF9108951F93CF93B8
:10399000DF93EB0190916401992321F0CB010E9408
:1039A000BB1C13C0882349F0CB010E947A1C182F3E
:1039B000682FCE010E941F1C04C0CB010E944E1C28
:1039C000182FBE01812F0E94920BDF91CF911F9182
:1039D00008958091C3018595859585950895809179
:1039E000C301877008959091C301977081E009F435
:1039F00080E008958091E70108959091E701892B77
:103A00008093E701089580959091E7018923809341
:103A1000E70108958093E70108951092E701089562
:103A20009091E601892B8093E6010895809590910D
:103A3000E60189238093E60108951092E601089536
:103A40009091E501892B8093E501089580959091EF
:103A5000E50189238093E50108951092E501089519
:103A60008091C401089508950C94331D9091C40170
:103A7000981721F08093C4010C94341D089580910F
:103A8000C401882329F01092C40180E00C94341DF5
:103A90000895E0910001F09101018091E701808398
:103AA000E0910001F091010190818091E601892B64
:103AB0008083E0910001F091010190818091E50106
:103AC000892B80838091C401882381F0E0910001DB
:103AD000F09101019081892B808380910001909168
:103AE00001010E946A1E81110E943F1D8091000108
:103AF000909101010C94131108950C947C1D98E091
:103B0000899F90011124262B2093C3010E94811BC1
:103B10008091C3018595859585950C947D1D1092A6
:103B2000C30180E00C947D1D2091C3018095822308
:103B30008093C301982F977079F430E0482F082EB6
:103B4000000C550B2417350739F08595859585951B
:103B50000E94A21B0C948F1D089590933D018093A9
:103B60003C0108958295982F9C7C392F3695369587
:103B7000282F237344E0249FC0011124932F982BF6
:103B8000292F2A7A2695892F8575880F822B0895EB
:103B90001F93CF93DF931F92CDB7DEB799830E9417
:103BA000B21D182F9981892F0E94B21D212F30E05C
:103BB000322F2227A901482BCA010F90DF91CF9104
:103BC0001F91089580E090E00E94033021E08D3E37
:103BD0009E4F09F020E0822F089582E090E00C943F
:103BE000FB2F83E090E00C94FB2F84E090E00C949A
:103BF000FB2F682F84E090E00C940930AB01BC01EE
:103C00008FE090E00C941B30AB01BC0183E190E0AD
:103C10000C941B3060E070E0CB010C94041E60E05B
:103C200070E0CB010E94FE1D0C940A1E6DEE7EEF2B
:103C300080E090E00E94273060E082E090E00E9407
:103C4000093060E083E090E00E9409301092BF01EB
:103C50001092C0011092C1011092C20160E084E094
:103C600090E00E94093060E085E090E00E94093019
:103C700060E086E090E00E9409306FEF87E090E01E
:103C80000E94093040E050E0BA0188E090E00E94D4
:103C90001B3060E08DE090E00E94093040E050E091
:103CA000BA0188E190E00E941B3060E087E190E07B
:103CB0000E94093040E050E0BA018CE190E00E949F
:103CC0001B3060E080E290E00E9409300C940F1EEF
:103CD0000C94161EFC01329680911201882331F05B
:103CE0008091270287FF02C09EE101C096E080E03C
:103CF000915028F021912223D9F38F5FF9CF0895B5
:103D00009C01FC0132969FEF80E04191461789F0BB
:103D10009F3F19F4411101C0982F8F5F8630A9F79A
:103D20009F3F39F0F901E90FF11D97FDFA95628384
:103D300008950895FC01329608962081261301C04B
:103D400010823196E817F907C1F70895262F2695B6
:103D5000269526952E3170F4FC01E20FF11D677057
:103D600021E030E001C0220F6A95EAF78281282B1A
:103D7000228308958091E80180FF0CC01F926F9309
:103D800083E196E09F938F930E9460090F900F90BC
:103D90000F900F900895262F2695269526952E3163
:103DA00078F4FC01E20FF11D677021E030E001C002
:103DB000220F6A95EAF720958281282322830895AD
:103DC0008091E80180FF0CC01F926F9385EF95E012
:103DD0009F938F930E9460090F900F900F900F9008
:103DE000089520911201222329F02091270227FD16
:103DF0000C94A61E0C94801E20911201222329F0FF
:103E00002091270227FD0C94CB1E0C949A1E209122
:103E10001201FC013296222331F08091270287FFA4
:103E200002C08EE101C086E0DF011D928A95E9F7AC
:103E3000089508950C94191F0E941A1F80912D0255
:103E4000843049F11092E90120E488E190E00FB656
:103E5000F894A895809360000FBE2093600080E0E6
:103E60000E945D0A0E941A1F83B7817F846083BF0E
:103E700083B7816083BF7894889583B78E7F83BF33
:103E80000FB6F894A89580916000886180936000D7
:103E9000109260000FBE089508950895CF930E9478
:103EA0004C1F0E949E0E0E944D1FC0E08C2F0E944E
:103EB000EF0D892B29F4CF5FC430C1F780E001C03A
:103EC00081E0CF91089508950C94631F0E944517D7
:103ED0000E9407110E945D0A0C94641F1F920F92AA
:103EE0000FB60F9211248F939F93AF93BF9380913E
:103EF000E901811113C08091230290912402A091C5
:103F00002502B09126024196A11DB11D8093230286
:103F100090932402A0932502B0932602BF91AF9103
:103F20009F918F910F900FBE0F901F90189582E078
:103F300084BD93E095BD9AEF97BD80936E00089580
:103F40002FB7F8948091230290912402A09125022A
:103F5000B09126022FBF08952FB7F89460912302E5
:103F60007091240280912502909126022FBF08951E
:103F7000CF92DF92EF92FF920F931F932FB7F89497
:103F800040912302509124026091250270912602F3
:103F90002FBF6A017B01EE24FF248C0120E030E07A
:103FA000C016D106E206F30610F4415051099A01F9
:103FB000281B390BC9011F910F91FF90EF90DF90E3
:103FC000CF90089578941F920F920FB60F921124FC
:103FD0008F939F93AF93BF9380912302909124027C
:103FE000A0912502B09126020196A11DB11D8093DA
:103FF000230290932402A0932502B0932602BF913E
:10400000AF919F918F910F900FBE0F901F901895B9
:1040100087E797E790930108809300089AE088E18A
:104020000FB6F894A895809360000FBE909360003F
:10403000FFCF0E94E21D811102C00E94681E0E94F3
:10404000ED1D8093E8010E94F51D90E090932802F9
:10405000809327020E94F11D682F70E080E090E0BD
:104060000C94201B8091ED0180FF0BC06091050135
:1040700085E0689FB00111247595679575956795E2
:104080002BC081FF09C06091050185E0689FB001E8
:1040900011247595679520C082FF07C060910501C6
:1040A00085E0689FB001112417C09091EC0199231D
:1040B000D1F060910401961788F72091050185E001
:1040C000289F90011124929FA001939F500D1124CD
:1040D00070E0CA010E94CD2F6038710540F461156F
:1040E000710539F002C065E070E0862F08958FE712
:1040F000089581E008958091ED0180FF08C06091EE
:10410000030170E0759567957595679521C081FFEE
:1041100006C06091030170E07595679519C082FF34
:1041200004C06091030170E010C09091EC019923EC
:10413000C1F0609102019617A0F780910301899F59
:10414000C001112470E00E94CD2F6038710528F461
:104150006115710521F0862F08958FE7089581E09C
:10416000089561E070E0F4CF803F21F40E94322096
:10417000819504C0813F29F40E9432208093F1018F
:104180000895823F21F40E943220819504C0833F2C
:1041900029F40E9432208093F0010895893F19F498
:1041A0000E947B2005C08A3F31F40E947B208195CC
:1041B0008093F20108958B3F21F40E947B2081952A
:1041C00004C08C3F29F40E947B208093F301089562
:1041D000843F21F48091EF01816017C0853F21F475
:1041E0008091EF01826011C0863F21F48091EF0140
:1041F00084600BC0873F21F48091EF01886005C087
:10420000883F31F48091EF0180618093EF01089540
:104210008D3F21F48091ED0181600BC08E3F21F430
:104220008091ED01826005C08F3F29F48091ED01FE
:1042300084608093ED010895803F39F48091F1010D
:1042400087FF6CC01092F10169C0813F29F4809111
:10425000F1011816BCF362C09091F001823F29F47D
:1042600097FF5CC01092F00159C0833F19F41916F2
:10427000CCF354C0893F41F48091F20118160CF040
:104280004DC01092F2014AC08A3F29F48091F20198
:1042900087FF44C0F6CF8B3F39F48091F30187FF4D
:1042A0003DC01092F3013AC08C3F29F48091F30194
:1042B0001816BCF333C0843F21F48091EF018E7F48
:1042C00017C0853F21F48091EF018D7F11C0863F9B
:1042D00021F48091EF018B7F0BC0873F21F4809107
:1042E000EF01877F05C0883F31F48091EF018F7E19
:1042F0008093EF0113C08D3F21F48091ED018E7FFB
:104300000BC08E3F21F48091ED018D7F05C08F3F62
:1043100029F48091ED018B7F8093ED018091F00174
:1043200081110EC08091F10181110AC08091F201CA
:10433000811106C08091F301811102C01092EC013D
:1043400008958091E80183FF7EC088E596E00E9491
:10435000C7088091EF011F928F9383E596E09F93AA
:104360008F930E94600981E596E00E94C7088091C2
:10437000F001282F082E000C330B3F938F938EE40F
:1043800096E09F938F930E9460098CE496E00E94D0
:10439000C7088091F101282F082E000C330B3F93A2
:1043A0008F9389E496E09F938F930E94600987E43E
:1043B00096E00E94C7088091F201282F082E000C79
:1043C000330B3F938F9384E496E09F938F930E94E7
:1043D000600982E496E00E94C7088091F301282FCB
:1043E000082E000C330B3F938F938FE396E09F933F
:1043F0008F930E9460098CE396E00E94C708809129
:10440000EC011F928F9389E396E09F938F930E9414
:10441000600987E396E00E94C7088091ED011F9232
:104420008F9384E396E09F938F930E94600981E3CA
:1044300096E00E94C7088DB79EB74C960FB6F894C9
:104440009EBF0FBE8DBF8EEE91E00E9468110E944C
:10445000A01F9093EB018093EA0108951F93CF93DF
:10446000DF938091EA019091EB010E94B81FAC01AB
:104470009091EC01992321F02091060130E006C0D3
:10448000209107018AE0289F9001112442175307C9
:1044900008F47BC08091F001C091F101D091F2014C
:1044A0001091F301811107C0C1116BC0D11169C016
:1044B000111167C06AC09F3F19F09F5F9093EC0194
:1044C000181624F40E9432208093F0018091F001AC
:1044D00087FF05C00E94322081958093F0011C1651
:1044E00024F40E9432208093F1018091F10187FF32
:1044F00005C00E94322081958093F1013091F00136
:104500003323E1F02091F1012223C1F045EB340384
:10451000C0011124892F990F990B009709F481E0AC
:104520008093F00135EB2303C0011124892F990FEB
:10453000990B009709F481E08093F1011D1624F492
:104540000E947B208093F2018091F20187FF05C0D9
:104550000E947B2081958093F201111624F40E9421
:104560007B208093F3018091F30187FF05C00E94B7
:104570007B2081958093F301DF91CF911F910C9463
:10458000A1219F3F09F099CFA1CFDF91CF911F913A
:104590000895EEEEF1E086E0DF011D928A95E9F7DD
:1045A0001092EC011092ED0108958BE798E00E94C3
:1045B000C7081F9281E08F931F9285E08F938DE251
:1045C00098E09F938F930E9460090F900F900F9037
:1045D0000F900F900F9008958330E9F128F4813007
:1045E00061F0823009F10895853009F462C008F461
:1045F00049C0863009F474C0089580910701262FC0
:1046000030E0280F311D2F3F310524F4680F6093EF
:10461000070103C08FEF80930701809107011F926C
:104620008F9386E697E072C080910601262F30E0D6
:10463000280F311D2F3F310524F4680F60930601C8
:1046400003C08FEF80930601809106011F928F9324
:1046500084E597E05BC080910501262F30E0280FAC
:10466000311D2F3F310524F4680F6093050103C00D
:104670008FEF80930501809105011F928F9381E454
:1046800097E044C080910401262F30E0280F311DAF
:104690002F3F310524F4680F6093040103C08FEFAE
:1046A00080930401809104011F928F938CE297E024
:1046B0002DC080910301262F30E0280F311D2F3FA0
:1046C000310524F4680F6093030103C08FEF8093DA
:1046D0000301809103011F928F9383E197E016C03D
:1046E00080910201262F30E0280F311D2F3F310528
:1046F00024F4680F6093020103C08FEF80930201DE
:10470000809102011F928F9388EF96E09F938F9381
:104710000E9460090F900F900F900F9008958330C2
:1047200081F128F4813059F08230D1F0089585303C
:1047300009F449C0B8F1863009F456C00895809153
:104740000701681720F4861B8093070102C01092AE
:104750000701809107011F928F9389EE96E054C064
:1047600080910601681720F4861B8093060102C021
:1047700010920601809106011F928F9387ED96E0BB
:1047800043C080910501681720F4861B80930501C2
:1047900002C010920501809105011F928F9384EC55
:1047A00096E032C080910401681720F4861B809344
:1047B000040102C010920401809104011F928F93A2
:1047C0008FEA96E021C080910301681720F4861BD0
:1047D0008093030102C010920301809103011F9294
:1047E0008F9386E996E010C080910201681720F44B
:1047F000861B8093020102C0109202018091020187
:104800001F928F938BE796E09F938F930E9460098E
:104810000F900F900F900F900895CF93C82F1F9275
:104820008F9380E899E09F938F930E94600981E0C5
:1048300090E0A0E0B0E0BC01CD0104C0660F771F9E
:10484000881F991FCA95D2F70E94201B0F900F90C6
:104850000F900F90CF910C944517CF93482F50E0B5
:10486000FA013597EF33F10508F03BC2E556FF4FEB
:104870000C94E12F8DEE9EE00E94C70889E29EE035
:104880000E94C7080E94F11D1F928F9386E29EE04E
:104890009F938F930E94600984E29EE00E94C70864
:1048A0000E94ED1DC82F81E19EE00E94C7081F9263
:1048B000CF938CE09EE09F938F930E9460098AE0E3
:1048C0009EE00E94C70880E09EE00E94C7088C2FEF
:1048D00081701F928F938DEF9DE09F938F930E9425
:1048E00060098BEF9DE00E94C70881EF9DE00E9468
:1048F000C708C1FB882780F91F928F938EEE9DE039
:104900009F938F930E9460098CEE9DE00E94C708E0
:1049100080EE9DE00E94C708C2FB882780F91F92A5
:104920008F938DED9DE09F938F930E9460098BED97
:104930009DE00E94C70882ED9DE00E94C708C3FB6E
:10494000CC27C0F91F92CF938FEC9DE09F938F935C
:104950000E9460098DEC9DE00E94C7080E94F51D31
:10496000C82F89EB9DE00E94C7081F92CF9384EB6C
:104970009DE09F938F930E94600982EB9DE00E94CF
:10498000C70889E99DE00E94C7088C2F81701F929B
:104990008F9386E99DE09F938F930E9460098DB766
:1049A0009EB780960FB6F8949EBF0FBE8DBF84E968
:1049B0009DE00E94C7088DE79DE00E94C708C1FBEB
:1049C000882780F91F928F938AE79DE09F938F93AA
:1049D0000E94600988E79DE00E94C70886E69DE086
:1049E0000E94C708C2FB882780F91F928F9383E635
:1049F0009DE09F938F930E94600981E69DE00E9455
:104A0000C7088FE49DE00E94C708C3FB882780F990
:104A10001F928F938CE49DE09F938F930E94600977
:104A20008AE49DE00E94C70880E49DE00E94C708D8
:104A3000C4FB882780F91F928F938DE39DE09F939D
:104A40008F930E9460098BE39DE00E94C70889E272
:104A50009DE00E94C708C5FB882780F91F928F93AD
:104A600086E29DE09F938F930E94600984E29DE01F
:104A70000E94C70888E09DE00E94C708C6FB8827FF
:104A800080F91F928F9385E09DE09F938F930E9402
:104A9000600983E09DE00E94C7088BEF9CE00E94C4
:104AA000C708C7FBCC27C0F91F92CF9388EF9CE0C3
:104AB0009F938F930E94600986EF9CE00E94C70835
:104AC0008DB79EB74C960FB6F8949EBF0FBE8DBFA4
:104AD00006C08CED9EE00E94C7080E94681EC1E0DF
:104AE00005C184E49BE07FC08091E801817F8E7FD7
:104AF0008093E8018DE19BE00E94C70888ED9EE06D
:104B00000E94C70881E08093F501E9CF0E94451714
:104B10008CEB9EE00E94C7089FEF23ED80E391504D
:104B200020408040E1F700C000000E940820D7CF5D
:104B30008091E801C82FC095C170C0FB80F98093B7
:104B4000E801CC2319F080EB9EE0BDC083EA9EE033
:104B50000E94C7088091E801897F877F8093E801E0
:104B6000BECF9091E80191FBCC27C0F981E0C82726
:104B7000892FC0FB81F98093E801CC2319F086E9E5
:104B80009EE027C088E89EE02EC09091E80192FB4D
:104B9000CC27C0F981E0C827892FC0FB82F9809318
:104BA000E801CC2319F089E79EE013C089E69EE076
:104BB0001AC09091E80193FBCC27C0F981E0C82787
:104BC000892FC0FB83F98093E801CC2351F08DE558
:104BD0009EE00E94C7088091E80181608093E8010F
:104BE00085C080E59EE00E94C70879CF8EE09BE0FB
:104BF0000E94C70883EE9AE00E94C70889EA9AE0FB
:104C00000E94C7088FE69AE00E94C70884E39AE0F2
:104C10000E94C70886E09AE0E6CF88EF99E00E94FC
:104C2000C7080E9407111F928F938EED99E09F9302
:104C30008F930E946009809112011F928F9387ECDD
:104C400099E09F938F930E94600980911A021F92AE
:104C50008F9384EB99E09F938F930E9460098091DA
:104C6000270287FB882780F91F928F938CE999E0B0
:104C70009F938F930E9460090E94AC1F9F938F9314
:104C80007F936F9385E899E09F938F930E946009CB
:104C90008DB79EB746960FB6F8949EBF0FBE8DBFD8
:104CA0001ECF0E9445179091270297FBCC27C0F991
:104CB00081E0C827892FC0FB87F980932702CC2386
:104CC00029F086E49EE00E94C70810C08BE39EE0B6
:104CD0008ACF895303C08D5101C080E00E940D240A
:104CE000FECE89E39EE00E94C708C0E08C2FCF91E2
:104CF000089580E0089580E008958E518A3030F460
:104D0000E82FF0E0EE5DFE4F8081089580E0089589
:104D1000CF93C82F8091F501813059F020F0823077
:104D200009F445C039C10E94FA1C823209F036C12B
:104D300004C00E94FA1C823261F48C2F0E947926F2
:104D4000811104C08C2F0E942D242FC081E090E09F
:104D50002CC08C2F0E947B26811126C0C431E1F02B
:104D600070F4CB3081F0C031D1F40E94D52288E7B5
:104D700099E00E94C70882E08093F50115C0C9320E
:104D800059F0C83361F48DE19BE00E94C7088CE7BD
:104D900099E00E94C70808C01092F50101C186E79A
:104DA00099E00E94C708FCC081E08170FBC0C4325A
:104DB00028F5CE3108F0C1C0CB30A1F1D0F4C73016
:104DC00009F0D0C08EE18093070182E38093060151
:104DD0008AE08093050184E18093040188E0809358
:104DE000030188E2809302018CE198E00E94C708E9
:104DF000BCC0C33149F1C431C1F0B4C0CB3409F4F3
:104E0000A6C028F4C93289F0C83361F0ABC0C135FF
:104E100009F49BC0C23509F496C0CE3409F0A2C093
:104E20006AE09BC00E94D522A0C08091F401882333
:104E300019F01092F40199C089E298E00E94C70825
:104E400081E08093F501AEC083E098E00E94C7083E
:104E500081EF97E00E94C708809107011F928F930E
:104E60008EEE97E09F938F930E9460098CEE97E0FF
:104E70000E94C7088AED97E00E94C708809106014A
:104E80001F928F9387ED97E09F938F930E94600905
:104E900085ED97E00E94C70886EC97E00E94C7085E
:104EA000809105011F928F9383EC97E09F938F93DE
:104EB0000E94600981EC97E00E94C70880EB97E0B0
:104EC0000E94C708809104011F928F938DEA97E09A
:104ED0009F938F930E9460098BEA97E00E94C70816
:104EE00086E997E00E94C708809103011F928F9383
:104EF00083E997E09F938F930E94600981E997E08F
:104F00000E94C7088AE797E00E94C70880910201C3
:104F10001F928F9387E797E09F938F930E9460097A
:104F200085E797E00E94C7088DB79EB748960FB6F1
:104F3000F8949EBF0FBE8DBF18C08C2F0E947D2697
:104F40008093F40112C061E003C061E006C06AE032
:104F50008091F4010E94EC2208C08091F4010E942B
:104F60008F2303C08AE198E013C08091F401882365
:104F700069F01F928F9384E198E09F938F930E9432
:104F800060090F900F900F900F9004C081E198E09E
:104F90000E94C70881E006C01092F50180E002C0BF
:104FA00080E003CFCF9108958091190208959FB7B3
:104FB000F8941092F8019FBF90912D02943009F05F
:104FC00057C09091E9009F703091EC00232F217021
:104FD00030FD20E8922B23E02093E9002091EB00A4
:104FE00020FF43C02091EE0027FF3FC02091F60133
:104FF000222321F02091E80025FF37C01092F6010E
:1050000026E03091E80035FD15C030912D02343096
:1050100061F53091EB0035FD28C0215021F481E08D
:105020008093F60122C0EFE9FFE03197F1F700C06D
:105030000000E7CF8093F1008091E80085FD0AC071
:105040008091E80080FFFCCF8091E8008E7780930C
:10505000E80006C08FB7F89421E02093F8018FBFD5
:105060009F709093E90080E008959F709093E9000D
:105070008FEF08950F931F93CF93DF9300D01F926C
:10508000CDB7DEB78C010E94092B823011F084303D
:1050900021F584E089831B830A8382E08093E90001
:1050A0008FEF9091E800815095FD06C095ED9A959F
:1050B000F1F700008111F5CF8091E80085FF0DC068
:1050C00040E050E063E070E0CE0101960E94262BA4
:1050D0008091E8008E778093E8000F900F900F90FA
:1050E000DF91CF911F910F910895CF93DF9300D05F
:1050F0001F92CDB7DEB720912D02243031F523E089
:105100002983805891099B838A8382E08093E900F8
:105110008FEF9091E800815095FD06C095ED9A952E
:10512000F1F700008111F5CF8091E80085FF0DC0F7
:1051300040E050E063E070E0CE0101960E94262B33
:105140008091E8008E778093E8000F900F900F9089
:10515000DF91CF910895CF93DF93EC010E94092B4B
:10516000823011F08430F9F482E08093E9009FEFFF
:105170008091E800915085FD06C085ED8A95F1F794
:1051800000009111F5CF8091E80085FF0CC040E050
:1051900050E066E070E0CE010E94262B8091E8008E
:1051A0008E778093E800DF91CF910895CF93DF93BE
:1051B000EC010E94092B823011F08430D9F58091E6
:1051C0001201882339F08091270287FF03C060E233
:1051D00082E002C068E081E08093E9008FEF909167
:1051E000E800815095FD06C095ED9A95F1F7000015
:1051F0008111F5CF8091E80085FF1CC080911201DC
:10520000811105C040E050E068E070E003C070E04C
:1052100040E050E0CE010E94262B8091E8008E777E
:105220008093E80080E2FE01A9EFB1E001900D92C9
:105230008A95E1F7DF91CF9108958DE19FE00E947B
:10524000C70880912C02811109C00E94BB2C0E94CA
:10525000182D8091E20084608093E200089589E136
:105260009FE00E94C70810922C02089585E19FE0FC
:105270000C94C70881E19FE00C94C7088DE09FE083
:105280000E94C7080C94661F2091F7012F5F822FA0
:1052900062E30E94C12F992319F02093F70108952A
:1052A0001092F7018091F801882371F180912D020D
:1052B000843041F58091E9008F702091EC00922FAD
:1052C000917020FD90E8892B93E09093E9009091F4
:1052D000EB0090FF14C09091EE0097FF10C09091EA
:1052E000E80095FF03C01092F100F9CF9091E8001B
:1052F00090FF05C09091E8009E779093E8008F7032
:105300008093E9001092F801089542E061EC81E099
:105310000E94352C42E261EC82E00E94352C42E290
:1053200061EC83E00C94352C80912F02833009F4DA
:1053300060C030F4813071F0823009F499C0089572
:105340008A3009F485C08B3009F46BC0893009F0CC
:10535000A7C020C080912E02813A09F0A1C080919F
:10536000E800877F8093E8008091320290913302B9
:10537000892B21F460E289EF91E003C060E080E0D6
:1053800090E070E00E94712B8091E8008B77809311
:10539000E800089580912E02813209F081C0809149
:1053A000320290913302029708F07AC08091E800AF
:1053B000877F8093E8008091E80082FD05C080919E
:1053C0002D028111F8CF6CC02091F3008091F20082
:1053D00090E0922B029729F48091F1008B7F81302D
:1053E00021F48091F100809319028091E8008B777D
:1053F00053C080912E02813A09F052C0809132024E
:1054000090913302892B09F04BC08091E800877F8F
:105410008093E8008091E80080FFFCCF809112012A
:1054200036C080912E028132D9F58091320290915E
:105430003302892BA9F58091E800877F8093E800EB
:105440000E946A2C80913002809312010C944517BF
:1054500080912E02813221F58091E800877F809330
:10546000E8000E946A2C8091310280931A0208950C
:1054700080912E02813AA1F48091E800877F809389
:10548000E8008091E80080FFFCCF80911A028093B1
:10549000F1008091E8008E778093E8000C946A2CEC
:1054A000089584B7877F84BF0FB6F894A89580913C
:1054B0006000886180936000109260000FBE80E8F9
:1054C00080936100109261000E94B0110E94BB2C79
:1054D0000E94182D8091E20084608093E20087EDA5
:1054E00097E20E94AD1D78940E94A62F0E94B811E9
:1054F00088E091E00E9402118CEF9EE00E94C708B4
:1055000080912D02853089F488EF9EE00E94C708C3
:105510000E941C1F80912B02882391F30E944E1F32
:10552000882371F30E94102BEBCF0E94E811E8CF83
:105530000C949A2A292F332723303105C9F064F4BB
:105540002130310581F02230310509F049C08BE569
:1055500090E025E53FE048C02132310521F12232BB
:10556000310571F13DC082E190E020EB3FE03CC0AD
:1055700099278130910571F02CF4892B89F5E1E5AB
:10558000FFE00DC08230910541F0039749F5E1E25B
:10559000FFE005C0E7E3FFE002C0E7E2FFE084913F
:1055A00090E09F0121C063307105D0F4660F771F32
:1055B000FB01EB5CFE4F2081318189E090E014C05B
:1055C0006330710568F4FB01EE0FFF1FE15DFE4FD4
:1055D00020813181FB01E45DFE4F808190E004C0B9
:1055E00080E090E020E030E0FA01318320830895EC
:1055F0000895CF93C82F0E94F82AC0931B02CF9121
:10560000089580912D02843011F081E0089582E0A8
:10561000089580911B02811102C00C94012B089502
:1056200080E189BD82E189BD09B400FEFDCF809192
:10563000D8008F7D8093D8008091E00082608093B5
:10564000E0008091E00081FDFCCF0895CF92DF92D1
:10565000EF92FF920F931F93CF93DF93EC018B0197
:105660006A010E94892C811133C0C114D10439F020
:10567000F60180819181081B190BC80FD91FE12CFD
:10568000F12C0115110519F18091E80085FD16C076
:105690008091E8008E778093E800C114D10449F02E
:1056A000F60180819181E80EF91EF182E08285E0A9
:1056B0000FC00E94892C882321F30AC0899180930E
:1056C000F10001501109FFEFEF1AFF0ADACF80E075
:1056D000DF91CF911F910F91FF90EF90DF90CF90CE
:1056E000089520913402309135022617370748F08B
:1056F0006115710539F42091E8002E772093E800B8
:1057000001C0B90140E061157105A9F120912D0298
:10571000222309F443C0253009F442C02091E80057
:1057200023FD40C02091E80022FD32C02091E80016
:1057300020FFE9CF4091F3002091F20030E0342BBC
:10574000FC01CF016115710559F02830310540F495
:1057500081918093F100615071092F5F3F4FF1CF2C
:1057600041E02830310509F040E02091E8002E7733
:105770002093E800C8CF4111C9CF0AC080912D0203
:10578000882361F0853061F08091E80083FD0AC0D4
:105790008091E80082FFF2CF80E0089582E00895D2
:1057A00083E0089581E0089520913402309135021C
:1057B0002617370748F06115710539F42091E80084
:1057C0002E772093E80001C0B901FC0120E06115AB
:1057D000710591F180912D02882309F440C0853034
:1057E00009F43FC08091E80083FD3DC08091E8004E
:1057F00082FD2FC08091E80080FFE9CF2091F30067
:105800008091F20090E0922B6115710559F088307B
:10581000910540F424912093F10031966150710973
:105820000196F2CF21E0089709F020E08091E8008E
:105830008E778093E800CBCF2111CCCF0AC0809126
:105840002D02882361F0853061F08091E80083FDAE
:105850000AC08091E80082FFF2CF80E0089582E0E4
:10586000089583E0089581E00895982F973058F5C2
:105870009093E900981739F07091EC002091ED00B9
:105880005091F00003C0242F762F50E021FF19C063
:105890003091EB003E7F3093EB003091ED003D7F87
:1058A0003093ED003091EB0031603093EB0070935A
:1058B000EC002093ED005093F0002091EE0027FFC4
:1058C00007C09F5FD3CF8F708093E90081E0089578
:1058D00080E0089580912E0287FF11C08091E8003A
:1058E00082FD05C080912D028111F8CF11C08091F9
:1058F000E8008B770BC080912D02882349F08091BE
:10590000E80080FFF8CF8091E8008E778093E80070
:1059100008952091E4003091E50095E64091EC0077
:10592000842F817040FF22C08091E80080FD1CC060
:1059300080912D02882391F0853091F08091EB00C9
:1059400085FD10C04091E4005091E50042175307D7
:1059500029F39A01915011F784E0089582E00895A7
:1059600083E0089581E0089580E008954091E80083
:1059700042FFDECF08950E94292D0E94312DE0EED6
:10598000F0E0808181608083E8EDF0E080818F77B6
:10599000808319BCA7EDB0E08C918E7F8C938081C1
:1059A0008F7E808310922C0208950F931F93CF93C4
:1059B000DF930E94292D0E94312DC8EDD0E088810F
:1059C0008F77888388818068888388818F7D8883AA
:1059D00019BC10922D021092290210922B021092E3
:1059E0002A0200EE10E0F80180818B7F808388819D
:1059F0008160888342E060E080E00E94352CE1EE27
:105A0000F0E080818E7F8083E2EEF0E08081816033
:105A10008083808188608083F80180818E7F80838D
:105A2000888180618883DF91CF911F910F910895C4
:105A3000E8EDF0E080818F7E8083E7EDF0E080810B
:105A40008160808384E082BF81E080932C020C948B
:105A5000D52CE8EDF0E080818E7F80831092E2000B
:105A600008951092DA001092E10008951F920F92AB
:105A70000FB60F9211242F933F934F935F936F9321
:105A80007F938F939F93AF93BF93EF93FF938091F7
:105A9000E10082FF0BC08091E20082FF07C080918D
:105AA000E1008B7F8093E1000E9444298091DA001D
:105AB00080FF1FC08091D80080FF1BC08091DA005A
:105AC0008E7F8093DA008091D90080FF0DC080E145
:105AD00089BD82E189BD09B400FEFDCF81E08093DC
